:020000040000FA
:0600000083EF06F0120080
:020006001200E6
:0600080040EF03F01200BE
:02000E000100EF
:0700100000000001000000E8
:0600180071EF04F012007C
:02001E000100DF
:0C0020000E000000770000000900000046
:04002C00D9CFE6FF43
:10003000E1CFD9FF030EE126DE6ADD6ADECF10F0E4
:10004000DDCF11F0FD0EDBCF12F0FE0EDBCF13F093
:100050001250105C135011581BE2020EDB6A020EA4
:10006000DB50106E116AD890115004E6C80E105C77
:10007000000E115808E2000000000000000000001F
:10008000020EDB2AECD7DF2A010E01E3DB2AD6D7EA
:10009000030EE15C02E2E16AE552E16EE552E7CF70
:1000A000D9FF1200D9CFE6FFE1CFD9FFFE0EDB501A
:1000B000836EE552E7CFD9FF1200D9CFE6FFE1CF3B
:1000C000D9FF8482FE0EDBCFE6FFECDFE55284949D
:1000D000030EE66EE66AAADFE552E5528492030E4D
:1000E000E66EE66AA3DFE552E5528482E552E7CF89
:1000F000D9FF1200D9CFE6FFE1CFD9FF8482FE0EEF
:10010000DBCFE6FFCFDFE5528484030EE66EE66ABE
:100110008DDFE552E5528492030EE66EE66A86DFD5
:10012000E552E5528482E552E7CFD9FF1200D9CFDC
:10013000E6FFE1CFD9FF84928494140EE66EE66A5E
:1001400075DFE552E5528482380EE66EB6DFE55281
:10015000050EE66EE66A6ADFE552E552380EE66E97
:10016000ACDFE552010EE66EE66A60DFE552E5526D
:10017000380EE66EA2DFE552080EE66E9EDFE5520F
:100180000F0EE66E9ADFE552010EE66E96DFE5523F
:10019000380EE66E92DFE552800EE66E8EDFE55297
:1001A000E552E7CFD9FF1200D9CFE6FFE1CFD9FF63
:1001B000FD0EDBCFF6FFFE0EDBCFF7FF0800F5509C
:1001C00011E0FD0EDBCFF6FFFE0EDBCFF7FF0800E0
:1001D000F550E66E8FDFE552FD0EDB2AFE0E01E3E1
:1001E000DB2AE6D7E552E7CFD9FF1200D9CFE6FFE9
:1001F000E1CFD9FFFD0EDBCFE9FFFE0EDBCFEAFF3B
:10020000EF5010E0FD0EDBCFE9FFFE0EDBCFEAFF83
:10021000EF50E66E6FDFE552FD0EDB2AFE0E01E3C6
:10022000DB2AE8D7E552E7CFD9FF12003F0E946EE4
:10023000070E936E966A956A0F0EC16EF19ED08E70
:10024000F28CF28EF288F292F086F090F08CF088C8
:10025000F092F08E860ED56EF184F294F28A6A0ED8
:10026000E66E670EE66E10EC06F0E552E5529F90E2
:100270009E90750EE66EFA0EE66EF4EC05F0E55211
:10028000E552F40ECD6ECD94050ECA6EF90ECB6E0E
:100290000C0EBA6EAC84AC98B896AB8E949CAC8ABB
:1002A000810EAF6EB06A0B0EBD6E9D849F949E94BE
:1002B000050EBF6E8B0EBE6E2B0EE66E38DFE5525E
:1002C000010EE66EFADEE552080EE66E46EC06F02A
:1002D000E5520C0EE66EF1DEE5528086809A000152
:1002E0007B51030A01E1D4D0090A01E1A1D0080A37
:1002F00001E192D0030A74E0010A01E02CD1C00EA2
:10030000E66EDBDEE552C50EE66E0B0EE66E4CDFEA
:10031000E552E552D58EFF0E00017C5D60E1D59E71
:100320008096808A840EE66EC8DEE5520A0E106E54
:1003300010C00EF078C009F02CEC06F00950300F18
:100340000001666F78C009F00A0E0E6E2CEC06F004
:100350000550300F0001676F3A0E656F0A0E106E80
:1003600010C00EF079C009F02CEC06F00950300FE7
:100370000001636F79C009F00A0E0E6E2CEC06F0D6
:100380000550300F0001646F3A0E626F0A0E106E56
:1003900010C00EF07AC009F02CEC06F00950300FB6
:1003A0000001606F7AC009F00A0E0E6E2CEC06F0A8
:1003B0000550300F0001616F600EE66E000EE66EB4
:1003C00015DFE552E552C00EE66E77DEE552B30E5C
:1003D000E66E0B0EE66EE8DEE552E5529CD7BBD02A
:1003E000C00EE66E6ADEE552A30EE66E0B0EE66EFA
:1003F000DBDEE552E552FF0E00017C5D0CE1C00E34
:10040000E66E5BDEE552940EE66E0B0EE66ECCDE1B
:10041000E552E552F0D79FD0C00EE66E4EDEE552B3
:10042000830EE66E0B0EE66EBFDEE552E55293D00C
:10043000C00EE66E42DEE552720EE66E0B0EE66E02
:10044000B3DEE552E55200017D6B080EE76E7D19C3
:10045000E8AE02D0E73402D0E7507D5D10E2ACA2F6
:10046000FED77DC0E9FFEA6AE9BEEA68600EE926C8
:10047000000EEA22EF50AD6E00017D2BE6D7ACA254
:10048000FED70A0EAD6EACA2FED70D0EAD6E63D0D8
:10049000C00EE66E12DEE552620EE66E0B0EE66EE2
:1004A00083DEE552E552FF0E00017C5D53E13D0E17
:1004B000946E7EC0E6FF7FC0E6FFA0D8E552E5520D
:1004C0000A0E106E116A7EC008F07FC009F010C0DD
:1004D0000DF011C00EF05DEC06F008C069F06A0E78
:1004E000E66E000EE66E69C010F0116A126A136AB9
:1004F00010AE03D011681268136810C0E6FF11C077
:10050000E6FF12C0E6FF13C0E6FF84EC04F0146EB1
:10051000060EE15E1450C00EE66ECFDDE552590EB8
:10052000E66E0B0EE66E40DEE552E5526A0EE66EB2
:10053000000EE66E5BDEE552E552500EE66E0B0EE7
:10054000E66E32DEE552E552320EE66E46EC06F01D
:10055000E552A9D700D0840EE66EAFDDE5520A0E53
:10056000106E10C00EF078C009F02CEC06F00950A7
:10057000300F0001666F78C009F00A0E0E6E2CEC89
:1005800006F00550300F0001676F3A0E656F0A0ED6
:10059000106E10C00EF079C009F02CEC06F0095076
:1005A000300F0001636F79C009F00A0E0E6E2CEC5B
:1005B00006F00550300F0001646F3A0E626F0A0EAC
:1005C000106E10C00EF07AC009F02CEC06F0095045
:1005D000300F0001606F7AC009F00A0E0E6E2CEC2D
:1005E00006F00550300F0001616F600EE66E000EE0
:1005F000E66EFCDDE552E55270D61200D9CFE6FF7B
:10060000E1CFD9FFFD0EDBCF10F0FE0EDBCF11F0F6
:10061000D89011321032D890113210321050BB6E77
:10062000FD0EDBCF10F0FE0EDBCF11F00001116AE2
:10063000010E10161050E8B0BA88E8A0BA98FD0E66
:10064000DBCF10F0FE0EDBCF11F0D890113210325C
:10065000FD0E10C0DBFFFE0E11C0DBFFFD0EDBCF79
:1006600010F0FE0EDBCF11F0116A010E10161050C3
:10067000E8B0BA8AE8A0BA9AE552E7CFD9FF1200EB
:10068000DACFE4FFE2CFDAFFE9CFE4FFEACFE4FF1D
:10069000F6CFE4FFF7CFE4FFF5CFE4FFF3CFE4FFBD
:1006A000F4CFE4FFFACFE4FF00EE00F0100EE80410
:1006B00003E3EECFE4FFFBD700EE10F0050EE804F5
:1006C00003E3EECFE4FFFBD7E6526A0EE66E670E59
:1006D000E66E10EC06F0E552E5520001785108E1B3
:1006E0000001795105E100017A5102E1F29434D020
:1006F00000017807783503E30001795106E1000134
:1007000078352AE300017A5127E000013B0E786F2B
:100710000001790779350BE300017A5108E0000107
:100720003B0E796F00017A077A3501E37A6B020E8E
:1007300000017A5D11E1000E0001E76E7919E8AE63
:1007400002D0793503D0E750D880795505E2795148
:1007500002E0000E01D0010EF29400017C0517E1C9
:10076000F0A008D00001775100017B27040E7B5DCB
:1007700001E17B6BF090F0A208D0000177510001FD
:100780007B5F7B3502E3030E7B6FF09233D0F0503A
:10079000010B1FE000017B511CE10001792B3B0E96
:1007A000E76E7919E8AE02D0793503D0E750D880EA
:1007B000795501E2796BC00EE66E5DEC00F0E55212
:1007C000D60EE66E0B0EE66ED4EC00F0E552E55266
:1007D000F090F0A20FD000017A2B020EE76E7A198A
:1007E000E8AE02D07A3503D0E750D8807A5501E2DE
:1007F0007A6BF09200017B51030A32E0090A2AE089
:10080000080A22E0030A11E0010A01E046D0F2A240
:1008100003D000017C6DF292FF0E00017C5D05E1CA
:10082000F250020B02E07C6DF292F2A203D00001C2
:100830007C6DF292FF0E00017C5D05E1F250020B2F
:1008400002E07C6DF29229D0F2A202D00A0E7B6FF8
:10085000F29223D0F2A202D0020E7B6FF2921DD050
:10086000F2A203D000017C6DF292FF0E00017C5DCC
:1008700013E1F0A011D0640E00017E277EC015F0B8
:10088000166A15BE1668163404E21550E808030E01
:10089000165401E27E6BF09000D0E55200EE14F0A9
:1008A000050EE80403E3E5CFEDFFFBD700EE0FF004
:1008B000100EE80403E3E5CFEDFFFBD7E5CFFAFF29
:1008C000E5CFF4FFE5CFF3FFE5CFF5FFE5CFF7FF89
:1008D000E5CFF6FFE5CFEAFFE5CFE9FFE5CFDAFFA9
:1008E0001100D8CFE4FFE0CFE4FFE46EDACFE4FFFD
:1008F000E2CFDAFFE652E552E5CFDAFFE550E5CF89
:08090000E0FFE5CFD8FF100075
:08090800D9CFE6FFDACFE6FFCC
:10091000F80EE3CFD9FFF90EE3CFDAFFFD0EE35275
:1009200015E72D0EDE6EFA0EE31EFB0EE31EFC0E27
:10093000E31EFD0EE31EFA0EE32A08E1FB0EE32A96
:1009400005E1FC0EE32A02E1FD0EE32AE652E6523F
:10095000E652E652E652FB0EE124E76EFF0EE2207D
:10096000E46EE652F30EE3CFE6FFF30EE3CFE6FFCD
:10097000F30EE3CFE6FFF30EE3CFE6FF21EC05F045
:10098000F50EE124E96EFF0EE220EA6E0EEC05F0B2
:1009900019E111EC05F018E10EEC05F017E111EC8E
:1009A00005F016E10EEC05F015E111EC05F014E18F
:1009B0000EEC05F013E111EC05F012E10EEC05F080
:1009C00011E112D017EC05F01CEC05F017EC05F066
:1009D0001CEC05F017EC05F01CEC05F017EC05F02D
:1009E0001CEC05F017EC05F01CEC05F0DE6AF50ECA
:1009F000E126FF0EE222FF0EE3CFDAFFE552FF0E03
:100A0000E3CFD9FFE552FA0EE124E96EFF0EE220B2
:100A1000EA6EEECFF3FFEFCFF4FF1200EF380F0BCB
:100A20001200EF500F0B02E1EE52D8841200EF38A3
:100A30000F0B300FDE6E1200EE500F0B300FDE6E1C
:100A40001200FA0EE3CFE9FFFB0EE3CFEAFF200E20
:100A5000E66EEE6AEE6AEE6AEE6AEF6AD890FB0E18
:100A6000E336FC0EE336FD0EE336FE0EE336ED36DE
:100A7000ED36ED36ED36EF36FF0EE3060FE050ECC7
:100A800005F0EE5250EC05F0EE5250EC05F0EE524F
:100A900050EC05F0EE5250EC05F0E1D7E56E120097
:100AA000030EEF24E8B6EF6E300EEF24E8BEEF6ED3
:020AB000000C38
:0E0AB2001E0EF66E000EF76E000EF86E0001BE
:100AC0000900F550726F0900F550736F03E172670A
:100AD00001D03DD00900F5506D6F0900F5506E6FE3
:100AE0000900F5506F6F09000900F550E96E090023
:100AF000F550EA6E090009000900F550706F090011
:100B0000F550716F09000900F6CF74F0F7CF75F05A
:100B1000F8CF76F06DC0F6FF6EC0F7FF6FC0F8FF3C
:100B20000001705302E1715307E00900F550EE6EC9
:100B30007007F8E27107F9D774C0F6FF75C0F7FFC8
:100B400076C0F8FF00017207000E735BBFD712007A
:100B50002520202020202020002020202044433A4F
:100B60002000202020204C414D5041444120202095
:100B7000200020454E5649414E444F204441444FA9
:100B80005320002020454E5649415220534552499A
:100B9000414C200020205445535445535353532077
:100BA0002020002020202020414C41524D45202073
:100BB0002020002020434F4E4649475552414E4485
:100BC0004F2020200020414A5553544520484F5281
:100BD0004152494F20002020434F4E46494755522D
:080BE000414E444F202020008B
:080BE800D9CFE6FFDACFE6FFEA
:100BF000E1CFD9FFE2CFDAFFE652E652FC0EDBCFBF
:100C0000DEFFDBCFDDFF010EDB50CF6EDF50CE6E9F
:100C1000E552E552E552E5CFDAFFE7CFD9FF120002
:100C2000D9CFE6FFDACFE6FFE1CFD9FFE2CFDAFF97
:100C3000E652E652FC0EDBCFDEFFDBCFDDFF010E1E
:100C4000DB50D76EDF50D66EE552E552E552E5CF68
:080C5000DAFFE7CFD9FF120023
:080C5800006A0EAE32EF06F057
:100C60000E6C001E09AE37EF06F0096C001E91EC09
:100C700006F009BE41EF06F000AE000C096C056CF1
:0C0C8000000C00BE3EEF06F00188FF0CE7
:040C8C00FF0EE35024
:100C9000186EEF0E01D0F30EE76EE72E4DEF06F063
:100CA0000C0E176EE76AE72E53EF06F0172E52EF81
:0A0CB00006F0182E4BEF06F01200BC
:060CBA00056A046A100E39
:100CC000E76ED89008360936043605360D50045CB8
:100CD0000E50055805E30D50045E0E50055A082AC3
:060CE000E72EF0D7120020
:0A0CE600000EF36E00EE00F0080EA1
:100CF00001D81200EA6002D0EE6AFCD7F350E96036
:060D00001200EE6AFCD7B0
:0A0D060013EE00F023EE00F0F86A8F
:100D1000019C59EC05F003EC00F016EC01F0FBD758
:020D20001200BF
:0E0D2200056A080EE76ED890093605360E50A9
:0E0D3000055C02E3056E092AE72EF7D71200D4
:020000040030CA
:0100000000FF
:010001000CF2
:0100030012EA
:010005008179
:010006008178
:00000001FF
